{
  "abi": [
    {
      "type": "constructor",
      "inputs": [],
      "stateMutability": "nonpayable"
    },
    {
      "type": "function",
      "name": "approve",
      "inputs": [
        {
          "name": "to",
          "type": "address",
          "internalType": "address"
        },
        {
          "name": "tokenId",
          "type": "uint256",
          "internalType": "uint256"
        }
      ],
      "outputs": [],
      "stateMutability": "nonpayable"
    },
    {
      "type": "function",
      "name": "balanceOf",
      "inputs": [
        {
          "name": "owner",
          "type": "address",
          "internalType": "address"
        }
      ],
      "outputs": [
        {
          "name": "",
          "type": "uint256",
          "internalType": "uint256"
        }
      ],
      "stateMutability": "view"
    },
    {
      "type": "function",
      "name": "burn",
      "inputs": [
        {
          "name": "tokenId",
          "type": "uint256",
          "internalType": "uint256"
        }
      ],
      "outputs": [],
      "stateMutability": "nonpayable"
    },
    {
      "type": "function",
      "name": "getApproved",
      "inputs": [
        {
          "name": "tokenId",
          "type": "uint256",
          "internalType": "uint256"
        }
      ],
      "outputs": [
        {
          "name": "",
          "type": "address",
          "internalType": "address"
        }
      ],
      "stateMutability": "view"
    },
    {
      "type": "function",
      "name": "isApprovedForAll",
      "inputs": [
        {
          "name": "owner",
          "type": "address",
          "internalType": "address"
        },
        {
          "name": "operator",
          "type": "address",
          "internalType": "address"
        }
      ],
      "outputs": [
        {
          "name": "",
          "type": "bool",
          "internalType": "bool"
        }
      ],
      "stateMutability": "view"
    },
    {
      "type": "function",
      "name": "name",
      "inputs": [],
      "outputs": [
        {
          "name": "",
          "type": "string",
          "internalType": "string"
        }
      ],
      "stateMutability": "view"
    },
    {
      "type": "function",
      "name": "owner",
      "inputs": [],
      "outputs": [
        {
          "name": "",
          "type": "address",
          "internalType": "address"
        }
      ],
      "stateMutability": "view"
    },
    {
      "type": "function",
      "name": "ownerOf",
      "inputs": [
        {
          "name": "tokenId",
          "type": "uint256",
          "internalType": "uint256"
        }
      ],
      "outputs": [
        {
          "name": "",
          "type": "address",
          "internalType": "address"
        }
      ],
      "stateMutability": "view"
    },
    {
      "type": "function",
      "name": "pause",
      "inputs": [],
      "outputs": [],
      "stateMutability": "nonpayable"
    },
    {
      "type": "function",
      "name": "paused",
      "inputs": [],
      "outputs": [
        {
          "name": "",
          "type": "bool",
          "internalType": "bool"
        }
      ],
      "stateMutability": "view"
    },
    {
      "type": "function",
      "name": "renounceOwnership",
      "inputs": [],
      "outputs": [],
      "stateMutability": "nonpayable"
    },
    {
      "type": "function",
      "name": "safeMint",
      "inputs": [
        {
          "name": "to",
          "type": "address",
          "internalType": "address"
        },
        {
          "name": "uri",
          "type": "string",
          "internalType": "string"
        }
      ],
      "outputs": [],
      "stateMutability": "nonpayable"
    },
    {
      "type": "function",
      "name": "safeTransferFrom",
      "inputs": [
        {
          "name": "from",
          "type": "address",
          "internalType": "address"
        },
        {
          "name": "to",
          "type": "address",
          "internalType": "address"
        },
        {
          "name": "tokenId",
          "type": "uint256",
          "internalType": "uint256"
        }
      ],
      "outputs": [],
      "stateMutability": "nonpayable"
    },
    {
      "type": "function",
      "name": "safeTransferFrom",
      "inputs": [
        {
          "name": "from",
          "type": "address",
          "internalType": "address"
        },
        {
          "name": "to",
          "type": "address",
          "internalType": "address"
        },
        {
          "name": "tokenId",
          "type": "uint256",
          "internalType": "uint256"
        },
        {
          "name": "data",
          "type": "bytes",
          "internalType": "bytes"
        }
      ],
      "outputs": [],
      "stateMutability": "nonpayable"
    },
    {
      "type": "function",
      "name": "setApprovalForAll",
      "inputs": [
        {
          "name": "operator",
          "type": "address",
          "internalType": "address"
        },
        {
          "name": "approved",
          "type": "bool",
          "internalType": "bool"
        }
      ],
      "outputs": [],
      "stateMutability": "nonpayable"
    },
    {
      "type": "function",
      "name": "supportsInterface",
      "inputs": [
        {
          "name": "interfaceId",
          "type": "bytes4",
          "internalType": "bytes4"
        }
      ],
      "outputs": [
        {
          "name": "",
          "type": "bool",
          "internalType": "bool"
        }
      ],
      "stateMutability": "view"
    },
    {
      "type": "function",
      "name": "symbol",
      "inputs": [],
      "outputs": [
        {
          "name": "",
          "type": "string",
          "internalType": "string"
        }
      ],
      "stateMutability": "view"
    },
    {
      "type": "function",
      "name": "tokenURI",
      "inputs": [
        {
          "name": "tokenId",
          "type": "uint256",
          "internalType": "uint256"
        }
      ],
      "outputs": [
        {
          "name": "",
          "type": "string",
          "internalType": "string"
        }
      ],
      "stateMutability": "view"
    },
    {
      "type": "function",
      "name": "transferFrom",
      "inputs": [
        {
          "name": "from",
          "type": "address",
          "internalType": "address"
        },
        {
          "name": "to",
          "type": "address",
          "internalType": "address"
        },
        {
          "name": "tokenId",
          "type": "uint256",
          "internalType": "uint256"
        }
      ],
      "outputs": [],
      "stateMutability": "nonpayable"
    },
    {
      "type": "function",
      "name": "transferOwnership",
      "inputs": [
        {
          "name": "newOwner",
          "type": "address",
          "internalType": "address"
        }
      ],
      "outputs": [],
      "stateMutability": "nonpayable"
    },
    {
      "type": "function",
      "name": "unpause",
      "inputs": [],
      "outputs": [],
      "stateMutability": "nonpayable"
    },
    {
      "type": "event",
      "name": "Approval",
      "inputs": [
        {
          "name": "owner",
          "type": "address",
          "indexed": true,
          "internalType": "address"
        },
        {
          "name": "approved",
          "type": "address",
          "indexed": true,
          "internalType": "address"
        },
        {
          "name": "tokenId",
          "type": "uint256",
          "indexed": true,
          "internalType": "uint256"
        }
      ],
      "anonymous": false
    },
    {
      "type": "event",
      "name": "ApprovalForAll",
      "inputs": [
        {
          "name": "owner",
          "type": "address",
          "indexed": true,
          "internalType": "address"
        },
        {
          "name": "operator",
          "type": "address",
          "indexed": true,
          "internalType": "address"
        },
        {
          "name": "approved",
          "type": "bool",
          "indexed": false,
          "internalType": "bool"
        }
      ],
      "anonymous": false
    },
    {
      "type": "event",
      "name": "BatchMetadataUpdate",
      "inputs": [
        {
          "name": "_fromTokenId",
          "type": "uint256",
          "indexed": false,
          "internalType": "uint256"
        },
        {
          "name": "_toTokenId",
          "type": "uint256",
          "indexed": false,
          "internalType": "uint256"
        }
      ],
      "anonymous": false
    },
    {
      "type": "event",
      "name": "MetadataUpdate",
      "inputs": [
        {
          "name": "_tokenId",
          "type": "uint256",
          "indexed": false,
          "internalType": "uint256"
        }
      ],
      "anonymous": false
    },
    {
      "type": "event",
      "name": "OwnershipTransferred",
      "inputs": [
        {
          "name": "previousOwner",
          "type": "address",
          "indexed": true,
          "internalType": "address"
        },
        {
          "name": "newOwner",
          "type": "address",
          "indexed": true,
          "internalType": "address"
        }
      ],
      "anonymous": false
    },
    {
      "type": "event",
      "name": "Paused",
      "inputs": [
        {
          "name": "account",
          "type": "address",
          "indexed": false,
          "internalType": "address"
        }
      ],
      "anonymous": false
    },
    {
      "type": "event",
      "name": "Transfer",
      "inputs": [
        {
          "name": "from",
          "type": "address",
          "indexed": true,
          "internalType": "address"
        },
        {
          "name": "to",
          "type": "address",
          "indexed": true,
          "internalType": "address"
        },
        {
          "name": "tokenId",
          "type": "uint256",
          "indexed": true,
          "internalType": "uint256"
        }
      ],
      "anonymous": false
    },
    {
      "type": "event",
      "name": "Unpaused",
      "inputs": [
        {
          "name": "account",
          "type": "address",
          "indexed": false,
          "internalType": "address"
        }
      ],
      "anonymous": false
    },
    {
      "type": "error",
      "name": "ERC721IncorrectOwner",
      "inputs": [
        {
          "name": "sender",
          "type": "address",
          "internalType": "address"
        },
        {
          "name": "tokenId",
          "type": "uint256",
          "internalType": "uint256"
        },
        {
          "name": "owner",
          "type": "address",
          "internalType": "address"
        }
      ]
    },
    {
      "type": "error",
      "name": "ERC721InsufficientApproval",
      "inputs": [
        {
          "name": "operator",
          "type": "address",
          "internalType": "address"
        },
        {
          "name": "tokenId",
          "type": "uint256",
          "internalType": "uint256"
        }
      ]
    },
    {
      "type": "error",
      "name": "ERC721InvalidApprover",
      "inputs": [
        {
          "name": "approver",
          "type": "address",
          "internalType": "address"
        }
      ]
    },
    {
      "type": "error",
      "name": "ERC721InvalidOperator",
      "inputs": [
        {
          "name": "operator",
          "type": "address",
          "internalType": "address"
        }
      ]
    },
    {
      "type": "error",
      "name": "ERC721InvalidOwner",
      "inputs": [
        {
          "name": "owner",
          "type": "address",
          "internalType": "address"
        }
      ]
    },
    {
      "type": "error",
      "name": "ERC721InvalidReceiver",
      "inputs": [
        {
          "name": "receiver",
          "type": "address",
          "internalType": "address"
        }
      ]
    },
    {
      "type": "error",
      "name": "ERC721InvalidSender",
      "inputs": [
        {
          "name": "sender",
          "type": "address",
          "internalType": "address"
        }
      ]
    },
    {
      "type": "error",
      "name": "ERC721NonexistentToken",
      "inputs": [
        {
          "name": "tokenId",
          "type": "uint256",
          "internalType": "uint256"
        }
      ]
    },
    {
      "type": "error",
      "name": "EnforcedPause",
      "inputs": []
    },
    {
      "type": "error",
      "name": "ExpectedPause",
      "inputs": []
    },
    {
      "type": "error",
      "name": "OwnableInvalidOwner",
      "inputs": [
        {
          "name": "owner",
          "type": "address",
          "internalType": "address"
        }
      ]
    },
    {
      "type": "error",
      "name": "OwnableUnauthorizedAccount",
      "inputs": [
        {
          "name": "account",
          "type": "address",
          "internalType": "address"
        }
      ]
    }
  ],
  "bytecode": {
    "object": "0x60806040523480156200001157600080fd5b503360405180604001604052806005815260200164135e53919560da1b81525060405180604001604052806005815260200164135653919560da1b8152508160009081620000609190620001be565b5060016200006f8282620001be565b50506007805460ff19169055506001600160a01b038116620000ab57604051631e4fbdf760e01b81526000600482015260240160405180910390fd5b620000b681620000bd565b506200028a565b600780546001600160a01b03838116610100818102610100600160a81b031985161790945560405193909204169182907f8be0079c531659141344cd1fd0a4f28419497f9722a3daafe3b4186f6b6457e090600090a35050565b634e487b7160e01b600052604160045260246000fd5b600181811c908216806200014257607f821691505b6020821081036200016357634e487b7160e01b600052602260045260246000fd5b50919050565b601f821115620001b9576000816000526020600020601f850160051c81016020861015620001945750805b601f850160051c820191505b81811015620001b557828155600101620001a0565b5050505b505050565b81516001600160401b03811115620001da57620001da62000117565b620001f281620001eb84546200012d565b8462000169565b602080601f8311600181146200022a5760008415620002115750858301515b600019600386901b1c1916600185901b178555620001b5565b600085815260208120601f198616915b828110156200025b578886015182559484019460019091019084016200023a565b50858210156200027a5787850151600019600388901b60f8161c191681555b5050505050600190811b01905550565b6115c4806200029a6000396000f3fe608060405234801561001057600080fd5b50600436106101375760003560e01c806370a08231116100b8578063a22cb4651161007c578063a22cb46514610267578063b88d4fde1461027a578063c87b56dd1461028d578063d204c45e146102a0578063e985e9c5146102b3578063f2fde38b146102c657600080fd5b806370a0823114610218578063715018a6146102395780638456cb59146102415780638da5cb5b1461024957806395d89b411461025f57600080fd5b80633f4ba83a116100ff5780633f4ba83a146101cc57806342842e0e146101d457806342966c68146101e75780635c975abb146101fa5780636352211e1461020557600080fd5b806301ffc9a71461013c57806306fdde0314610164578063081812fc14610179578063095ea7b3146101a457806323b872dd146101b9575b600080fd5b61014f61014a366004611085565b6102d9565b60405190151581526020015b60405180910390f35b61016c6102ea565b60405161015b91906110f2565b61018c610187366004611105565b61037c565b6040516001600160a01b03909116815260200161015b565b6101b76101b236600461113a565b6103a5565b005b6101b76101c7366004611164565b6103b4565b6101b7610444565b6101b76101e2366004611164565b610456565b6101b76101f5366004611105565b610476565b60075460ff1661014f565b61018c610213366004611105565b610482565b61022b6102263660046111a0565b61048d565b60405190815260200161015b565b6101b76104d5565b6101b76104e7565b60075461010090046001600160a01b031661018c565b61016c6104f7565b6101b76102753660046111bb565b610506565b6101b7610288366004611283565b610511565b61016c61029b366004611105565b610528565b6101b76102ae3660046112ff565b610533565b61014f6102c1366004611361565b61055e565b6101b76102d43660046111a0565b61058c565b60006102e4826105ca565b92915050565b6060600080546102f990611394565b80601f016020809104026020016040519081016040528092919081815260200182805461032590611394565b80156103725780601f1061034757610100808354040283529160200191610372565b820191906000526020600020905b81548152906001019060200180831161035557829003601f168201915b5050505050905090565b6000610387826105ef565b506000828152600460205260409020546001600160a01b03166102e4565b6103b0828233610628565b5050565b6001600160a01b0382166103e357604051633250574960e11b8152600060048201526024015b60405180910390fd5b60006103f0838333610635565b9050836001600160a01b0316816001600160a01b03161461043e576040516364283d7b60e01b81526001600160a01b03808616600483015260248201849052821660448201526064016103da565b50505050565b61044c61064a565b61045461067d565b565b61047183838360405180602001604052806000815250610511565b505050565b6103b060008233610635565b60006102e4826105ef565b60006001600160a01b0382166104b9576040516322718ad960e21b8152600060048201526024016103da565b506001600160a01b031660009081526003602052604090205490565b6104dd61064a565b61045460006106cf565b6104ef61064a565b610454610729565b6060600180546102f990611394565b6103b0338383610766565b61051c8484846103b4565b61043e84848484610805565b60606102e48261092e565b6008805460009182610544836113ce565b9190505590506105548382610a37565b6104718183610a51565b6001600160a01b03918216600090815260056020908152604080832093909416825291909152205460ff1690565b61059461064a565b6001600160a01b0381166105be57604051631e4fbdf760e01b8152600060048201526024016103da565b6105c7816106cf565b50565b60006001600160e01b03198216632483248360e11b14806102e457506102e482610aa1565b6000818152600260205260408120546001600160a01b0316806102e457604051637e27328960e01b8152600481018490526024016103da565b6104718383836001610af1565b6000610642848484610bf7565b949350505050565b6007546001600160a01b036101009091041633146104545760405163118cdaa760e01b81523360048201526024016103da565b610685610c0c565b6007805460ff191690557f5db9ee0a495bf2e6ff9c91a7834c1ba4fdd244a5e8aa4e537bd38aeae4b073aa335b6040516001600160a01b03909116815260200160405180910390a1565b600780546001600160a01b03838116610100818102610100600160a81b031985161790945560405193909204169182907f8be0079c531659141344cd1fd0a4f28419497f9722a3daafe3b4186f6b6457e090600090a35050565b610731610c2f565b6007805460ff191660011790557f62e78cea01bee320cd4e420270b5ea74000d11b0c9f74754ebdbfc544b05a2586106b23390565b6001600160a01b03821661079857604051630b61174360e31b81526001600160a01b03831660048201526024016103da565b6001600160a01b03838116600081815260056020908152604080832094871680845294825291829020805460ff191686151590811790915591519182527f17307eab39ab6107e8899845ad3d59bd9653f200f220920489ca2b5937696c31910160405180910390a3505050565b6001600160a01b0383163b1561043e57604051630a85bd0160e11b81526001600160a01b0384169063150b7a02906108479033908890879087906004016113f5565b6020604051808303816000875af1925050508015610882575060408051601f3d908101601f1916820190925261087f91810190611432565b60015b6108eb573d8080156108b0576040519150601f19603f3d011682016040523d82523d6000602084013e6108b5565b606091505b5080516000036108e357604051633250574960e11b81526001600160a01b03851660048201526024016103da565b805181602001fd5b6001600160e01b03198116630a85bd0160e11b1461092757604051633250574960e11b81526001600160a01b03851660048201526024016103da565b5050505050565b6060610939826105ef565b506000828152600660205260408120805461095390611394565b80601f016020809104026020016040519081016040528092919081815260200182805461097f90611394565b80156109cc5780601f106109a1576101008083540402835291602001916109cc565b820191906000526020600020905b8154815290600101906020018083116109af57829003601f168201915b5050505050905060006109ea60408051602081019091526000815290565b905080516000036109fc575092915050565b815115610a2e578082604051602001610a1692919061144f565b60405160208183030381529060405292505050919050565b61064284610c53565b6103b0828260405180602001604052806000815250610cc8565b6000828152600660205260409020610a6982826114ce565b506040518281527ff8e1a15aba9398e019f0b49df1a4fde98ee17ae345cb5f6b5e2c27f5033e8ce79060200160405180910390a15050565b60006001600160e01b031982166380ac58cd60e01b1480610ad257506001600160e01b03198216635b5e139f60e01b145b806102e457506301ffc9a760e01b6001600160e01b03198316146102e4565b8080610b0557506001600160a01b03821615155b15610bc7576000610b15846105ef565b90506001600160a01b03831615801590610b415750826001600160a01b0316816001600160a01b031614155b8015610b545750610b52818461055e565b155b15610b7d5760405163a9fbf51f60e01b81526001600160a01b03841660048201526024016103da565b8115610bc55783856001600160a01b0316826001600160a01b03167f8c5be1e5ebec7d5bd14f71427d1e84f3dd0314c0f7b2291e5b200ac8c7c3b92560405160405180910390a45b505b5050600090815260046020526040902080546001600160a01b0319166001600160a01b0392909216919091179055565b6000610c01610c2f565b610642848484610cdf565b60075460ff1661045457604051638dfc202b60e01b815260040160405180910390fd5b60075460ff16156104545760405163d93c066560e01b815260040160405180910390fd5b6060610c5e826105ef565b506000610c7660408051602081019091526000815290565b90506000815111610c965760405180602001604052806000815250610cc1565b80610ca084610dd8565b604051602001610cb192919061144f565b6040516020818303038152906040525b9392505050565b610cd28383610e6b565b6104716000848484610805565b6000828152600260205260408120546001600160a01b0390811690831615610d0c57610d0c818486610ed0565b6001600160a01b03811615610d4a57610d29600085600080610af1565b6001600160a01b038116600090815260036020526040902080546000190190555b6001600160a01b03851615610d79576001600160a01b0385166000908152600360205260409020805460010190555b60008481526002602052604080822080546001600160a01b0319166001600160a01b0389811691821790925591518793918516917fddf252ad1be2c89b69c2b068fc378daa952ba7f163c4a11628f55a4df523b3ef91a4949350505050565b60606000610de583610f34565b600101905060008167ffffffffffffffff811115610e0557610e056111f7565b6040519080825280601f01601f191660200182016040528015610e2f576020820181803683370190505b5090508181016020015b600019016f181899199a1a9b1b9c1cb0b131b232b360811b600a86061a8153600a8504945084610e3957509392505050565b6001600160a01b038216610e9557604051633250574960e11b8152600060048201526024016103da565b6000610ea383836000610635565b90506001600160a01b03811615610471576040516339e3563760e11b8152600060048201526024016103da565b610edb83838361100c565b610471576001600160a01b038316610f0957604051637e27328960e01b8152600481018290526024016103da565b60405163177e802f60e01b81526001600160a01b0383166004820152602481018290526044016103da565b60008072184f03e93ff9f4daa797ed6e38ed64bf6a1f0160401b8310610f735772184f03e93ff9f4daa797ed6e38ed64bf6a1f0160401b830492506040015b6d04ee2d6d415b85acef81000000008310610f9f576d04ee2d6d415b85acef8100000000830492506020015b662386f26fc100008310610fbd57662386f26fc10000830492506010015b6305f5e1008310610fd5576305f5e100830492506008015b6127108310610fe957612710830492506004015b60648310610ffb576064830492506002015b600a83106102e45760010192915050565b60006001600160a01b038316158015906106425750826001600160a01b0316846001600160a01b031614806110465750611046848461055e565b806106425750506000908152600460205260409020546001600160a01b03908116911614919050565b6001600160e01b0319811681146105c757600080fd5b60006020828403121561109757600080fd5b8135610cc18161106f565b60005b838110156110bd5781810151838201526020016110a5565b50506000910152565b600081518084526110de8160208601602086016110a2565b601f01601f19169290920160200192915050565b602081526000610cc160208301846110c6565b60006020828403121561111757600080fd5b5035919050565b80356001600160a01b038116811461113557600080fd5b919050565b6000806040838503121561114d57600080fd5b6111568361111e565b946020939093013593505050565b60008060006060848603121561117957600080fd5b6111828461111e565b92506111906020850161111e565b9150604084013590509250925092565b6000602082840312156111b257600080fd5b610cc18261111e565b600080604083850312156111ce57600080fd5b6111d78361111e565b9150602083013580151581146111ec57600080fd5b809150509250929050565b634e487b7160e01b600052604160045260246000fd5b600067ffffffffffffffff80841115611228576112286111f7565b604051601f8501601f19908116603f01168101908282118183101715611250576112506111f7565b8160405280935085815286868601111561126957600080fd5b858560208301376000602087830101525050509392505050565b6000806000806080858703121561129957600080fd5b6112a28561111e565b93506112b06020860161111e565b925060408501359150606085013567ffffffffffffffff8111156112d357600080fd5b8501601f810187136112e457600080fd5b6112f38782356020840161120d565b91505092959194509250565b6000806040838503121561131257600080fd5b61131b8361111e565b9150602083013567ffffffffffffffff81111561133757600080fd5b8301601f8101851361134857600080fd5b6113578582356020840161120d565b9150509250929050565b6000806040838503121561137457600080fd5b61137d8361111e565b915061138b6020840161111e565b90509250929050565b600181811c908216806113a857607f821691505b6020821081036113c857634e487b7160e01b600052602260045260246000fd5b50919050565b6000600182016113ee57634e487b7160e01b600052601160045260246000fd5b5060010190565b6001600160a01b0385811682528416602082015260408101839052608060608201819052600090611428908301846110c6565b9695505050505050565b60006020828403121561144457600080fd5b8151610cc18161106f565b600083516114618184602088016110a2565b8351908301906114758183602088016110a2565b01949350505050565b601f821115610471576000816000526020600020601f850160051c810160208610156114a75750805b601f850160051c820191505b818110156114c6578281556001016114b3565b505050505050565b815167ffffffffffffffff8111156114e8576114e86111f7565b6114fc816114f68454611394565b8461147e565b602080601f83116001811461153157600084156115195750858301515b600019600386901b1c1916600185901b1785556114c6565b600085815260208120601f198616915b8281101561156057888601518255948401946001909101908401611541565b508582101561157e5787850151600019600388901b60f8161c191681555b5050505050600190811b0190555056fea26469706673582212205f541215b3bf25ff73faafab5012a32eee940d1b5d4960cd57d067a4252b575064736f6c63430008170033",
    "linkReferences": {}
  },
  "methodIdentifiers": {
    "approve(address,uint256)": "095ea7b3",
    "balanceOf(address)": "70a08231",
    "burn(uint256)": "42966c68",
    "getApproved(uint256)": "081812fc",
    "isApprovedForAll(address,address)": "e985e9c5",
    "name()": "06fdde03",
    "owner()": "8da5cb5b",
    "ownerOf(uint256)": "6352211e",
    "pause()": "8456cb59",
    "paused()": "5c975abb",
    "renounceOwnership()": "715018a6",
    "safeMint(address,string)": "d204c45e",
    "safeTransferFrom(address,address,uint256)": "42842e0e",
    "safeTransferFrom(address,address,uint256,bytes)": "b88d4fde",
    "setApprovalForAll(address,bool)": "a22cb465",
    "supportsInterface(bytes4)": "01ffc9a7",
    "symbol()": "95d89b41",
    "tokenURI(uint256)": "c87b56dd",
    "transferFrom(address,address,uint256)": "23b872dd",
    "transferOwnership(address)": "f2fde38b",
    "unpause()": "3f4ba83a"
  },
  "id": 19
}